:060000000A128A110C280F
:10000800FE00030EF0000A08F1000A128A155A2FA2
:100018000A128A110F2883132030840043300A12F1
:100028008A1561270A128A1183010A128A11F32993
:1000380083120313D8004830D200DE292530590630
:1000480003192728282832285808840059088313B8
:1000580080000130CE004E08D807DE29D601D7012E
:10006800D5013B2855150130CE004E08C707470873
:1000780084000A128A110A250A128A11CE00CF01B9
:100088004F08003A031949284E284E08303A0319F8
:1000980036284E28470884000A128A110A250A12AF
:1000A8008A110A128A1591270A128A11031C5D28DF
:1000B8005E28A12883120313D601D7010A30F20063
:1000C8000030F300831203135708F5005608F400B4
:1000D8000A128A118B270A128A11730883120313D2
:1000E800D7007208D600470884000A128A110A2528
:1000F8000A128A11D03ECE00FF3003180030CF001C
:100108004E08D6070318D70A4F08D7070130CE0084
:100118004E08C707470884000A128A110A250A12DE
:100128008A110A128A1591270A128A1103189D2822
:100138009E286228A1285517C3280130831203136B
:10014800C707FF30470784000A128A110A250A12D6
:100158008A11D900CE00CF014F08003A0319B528FB
:10016800DE294E08003A0319EE29643A0319C32818
:100178000D3A0319C3281C3A03199F28DE29551B79
:10018800C628C728E1285208840083130008D30032
:10019800840A0008D4000230CE004E08D207D41FCB
:1001A800D628D728ED280330CE004E08D504D30929
:1001B800D409D30A0319D40AED28520884008313FA
:1001C8000008D300840A0008D4000230CE004E088C
:1001D800D207D901D90A5908CE004E07013E84003A
:1001E8000A128A110A250A128A11CF000A128A11E4
:1001F8000A250A128A11D00050085402031D062944
:100208004F085302031809290A290B291529013017
:10021800CE004E08D90705305906031D14291529A3
:10022800EF285608570403191A291B2927295508A6
:1002380003390319202921292729FF30D607031854
:10024800D70AFF30D7075708803A803C031D2E296C
:10025800560859020318312932293E2983120313FB
:100268005908CE00CF014E08D6024F08031CD70309
:10027800D702422983120313D601D701551D4529F8
:10028800462971295508033903194B294C29552941
:10029800580884002D30831380000130CE004E08AA
:1002A800D8075608570403195A295B299B29580867
:1002B80084003030831380000130CE004E08D80708
:1002C800FF30D6070318D70AFF30D7075608570458
:1002D800031D6F2970295B299B29560857040319A8
:1002E800762977298C2958088400203083138000C8
:1002F8000130CE004E08D807FF30D6070318D70ABA
:10030800FF30D70756085704031D8B298C297729F6
:10031800550803390319912992299B295808840003
:100328002D30831380000130CE004E08D8075908BD
:10033800D100D5290A30C3000030C4005108CE00CE
:100348004E07013E84000A128A110A250A128A11F0
:10035800F2000A128A110A250A128A11F3005408B7
:10036800F5005308F4000A128A1147250A128A1167
:10037800730883120313C6007208C5000A128A1193
:100388004A260A128A11831203134308303ED90001
:10039800580884005908831380000130CE004E08A5
:1003A800D807FF30CE004E08D107510A031DDD29BA
:1003B800DE299E290130C707FF30470784000A124B
:1003C8008A110A250A128A11D9005908031DED2934
:1003D800EE292228580884008313800108000A1295
:1003E8008A11B0270A128A110A128A119D240A1248
:1003F8008A110A128A1584270A128A11F601F60A46
:1004080001300A128A11D4270A128A113430F500F1
:100418008030F6000A128A118B250A128A110A12F4
:100428008A1572270A128A115130F2000030F3003F
:100438000A128A11F4270A128A110030F200F30016
:100448000A128A115D270A128A117208831203138D
:10045800A8000A128A157B270A128A110330831210
:100468000313DC000830DB007630DA00DA0B3A2AB6
:10047800DB0B3A2ADC0B3A2A000000308312031304
:10048800C800C900FF30CA000030CB000030CC00E3
:10049800CD006430CE000030CF0028080A128A113F
:1004A800BE260A128A11831203134908A7004808B6
:1004B800A6006430F8000030F9002708F300260889
:1004C800F2000530F4000030F5000A128A118B277B
:1004D8000A128A117308FB007208FA000A128A11BC
:1004E80071230A128A11790883120313A500780868
:1004F800A4000A30C8000030C9000A30F8000030F3
:10050800F9002708F3002608F2000530F40000304F
:10051800F5000A128A118B270A128A117308FB0048
:100528007208FA000A128A1171230A128A117908CC
:1005380083120313CB007808CA000A128A114224D6
:100548000A128A11831203134908A3004808A2005B
:100558000A30C8000030C9002708F3002608F20056
:100568000530F4000030F5000A128A118B270A12B0
:100578008A11730883120313CB007208CA000A1287
:100588008A1142240A128A11831203134908A1000E
:100598004808A000F601F60A02300A128A11D42788
:1005A8000A128A112B3083120313C7002508C900C9
:1005B8002408C8002308CB002208CA002108CD005F
:1005C8002008CC0029300A128A111C200A128A112C
:1005D8002930F5000030F6000A128A118B250A121C
:1005E8008A11413083120313C3004030C4004230E3
:1005F8000A128A11F3260A128A110830F60001300D
:100608000A128A11D4270A128A111C308312031382
:10061800C7004008DA00DB015A08C8005B08C900B7
:100628004108DC00DD015C08CA005D08CB00420817
:10063800DE00DF015E08CC005F08CD0029300A1219
:100648008A111C200A128A112930F5000030F600A0
:100658000A128A118B250A128A113E30831203135B
:10066800C3003D30C4003F300A128A1128270A12FD
:100678008A110730F60002300A128A11D4270A12AA
:100688008A110B3083120313C7003F08DA00DB011D
:100698005A08C8005B08C9003E08DC00DD015C0898
:1006A800CA005D08CB003D08DE00DF015E08CC0013
:1006B8005F08CD0029300A128A111C200A128A11FB
:1006C8002930F5000030F6000A128A118B250A122B
:1006D8008A11132A0A128A110C2883120313C501DE
:1006E800F91F772B782B7F2BF809F909F80A0319DA
:1006F800F90AC501C50AFB1F822B832B8C2BFA092B
:10070800FB09FA0A0319FB0A0130C3004308C506AE
:10071800C601C701780879040319932B942BCB2BB6
:10072800C401C40AA22B01300310F80DF90DFF3ED5
:10073800031D982B0130C3004308C407F91FA52BDC
:10074800A62B972B01300310C60DC70DFF3E031DC6
:10075800A72B79087B02031DB32B78087A02031CA8
:10076800B62BB72BBE2B7808FA027908031CFB03BB
:10077800FB02461401300310F90CF80CFF3E031D70
:10078800BF2B0130C402031DCA2BCB2BA62B450857
:100798000319CF2BD02BD52BC609C709C60A0319B5
:1007A800C70A4708F9004608F80008000030831215
:1007B8000313C6000030C5000030C4000030C30079
:1007C80075087404730472040319EB2BEC2B392C91
:1007D800C701C70AFC2B0130FA000310F20DF30D14
:1007E800F40DF50DFA0BF12B0130FA007A08C70762
:1007F800F51FFF2B002CEF2B0130FA000310C30D5F
:10080800C40DC50DC60DFA0B022C75087902031D1F
:10081800172C74087802031D172C73087702031D20
:10082800172C72087602031C1A2C1B2C2A2C72080F
:10083800F6027308031C730FF7027408031C740F85
:10084800F8027508031C750FF902431401300310F0
:10085800F50CF40CF30CF20CFF3E031D2B2C0130AD
:10086800C702031D382C392C002C4608F500450812
:10087800F4004408F3004308F2000800831203134D
:10088800CE01CB1F482C492C502CCA09CB09CA0AC7
:100898000319CB0ACE01CE0AC91F532C542C592C4C
:1008A800C809C909C80A0319C90A48084904031923
:1008B8005E2C5F2C8E2CCD01CD0A6D2C01300310DF
:1008C800C80DC90DFF3E031D632C0130CC004C0838
:1008D800CD07C91F702C712C622C49084B02031DCF
:1008E800772C48084A02031C7A2C7B2C812C480858
:1008F800CA024908031CCB03CB0201300310C90C00
:10090800C80CFF3E031D822C0130CD02031D8D2C27
:100918008E2C712C4E080319922C932C982CCA09F2
:10092800CB09CA0A0319CB0A4B08C9004A08C800F0
:10093800080000300A128A110C260A128A11343073
:10094800F700F130F600F60BA72CF70BA72CAC2C10
:1009580030300A128A15E6270A128A110D30F7007C
:10096800FB30F600F60BB62CF70BB62CBB2C303050
:100978000A128A15E6270A128A118530F600F60B44
:10098800C32C30300A128A15E6270A128A11383029
:100998000A128A15E6270A128A1108300A128A15DD
:1009A800E6270A128A1101300A128A15E6270A1266
:1009B8008A1106300A128A15E6270A128A110C30A3
:1009C8000A128A15E6270A128A114230F600F60B37
:1009D800EB2C00000800831603131419F42CF52CD3
:1009E800EF2C11081F39031DFA2CFB2CEF2C0800E3
:100A0000FF1B0A2D83137F1883170008840A03191C
:100A1000FF0A080005308A000408840A82070034AF
:100A2000013400340A34003464340034E8340334CC
:100A30001034273425343034323475342F3425348F
:100A40003034323475342F34323430342534303449
:100A500032347534003425343034323475343A3419
:100A600025343034323475343A3425343034323429
:100A700075340034253464342E34253464342534FC
:100A8000643456340034533431343A340034F7018A
:100A9000F8017208730403194E2D4F2D862DF901AC
:100AA000F90A5D2D01300310F20DF30DFF3E031D19
:100AB000532D0130F6007608F907F31F602D612DE4
:100AC000522D01300310F70DF80DFF3E031D622D6E
:100AD00073087502031D6E2D72087402031C712DBC
:100AE000722D792D7208F4027308031CF503F502C8
:100AF000771401300310F30CF20CFF3E031D7A2D26
:100B00000130F902031D852D862D612D7808F30033
:100B10007708F2000800FA01FB01B02D7A0875078A
:100B2000F8007608F7000318F70AFA1F982DF70364
:100B30007708F900790883120313FF00780884000E
:100B40000A128A1100250A128A110A128A15B82778
:100B50000A128A110130FA070318FB0A0030FB075A
:100B60007A087507F8007608F7000318F70AFA1FE5
:100B7000BA2DF7037708F900790883120313FF00F1
:100B8000780884000A128A1100250A128A11003A94
:100B9000031DCB2DCC2D8E2D0800FA000A128A15CC
:100BA00072270A128A11D030F2000030F3000A12C4
:100BB0008A11F4270A128A117A08F800F9017808D4
:100BC000F2007908F3000A128A11F4270A128A1136
:100BD0000A128A1569270A128A11D130F2000030F0
:100BE000F3000A128A11F4270A128A110030F20067
:100BF000F3000A128A115D270A128A117208FB009B
:100C00000A128A157B270A128A110630F800F80B9F
:100C1000072E00007B080800F200721C102E112E17
:100C2000152E831203130814182E831203130810B1
:100C3000F21C1B2E1C2E1E2E88141F2E8810721DB7
:100C4000222E232E252E0815262E0811F21D292EC0
:100C50002A2E2C2E88152D2E8811721E302E312E04
:100C6000332E0816342E0812F21E372E382E3A2E46
:100C700088163B2E8812721F3E2E3F2E412E0817DB
:100C8000422E0813F21F452E462E482E8817492E55
:100C90008813080083120313430844040319512ED8
:100CA000522E812EFB01FB0A602E01300310C30D72
:100CB000C40DFF3E031D562E0130FA007A08FB07D3
:100CC000C41F632E642E552E44084602031D6A2E4F
:100CD00043084502031C6D2E6E2E742E4308C50278
:100CE0004408031CC603C60201300310C40CC30C25
:100CF000FF3E031D752E0130FB02031D802E812E49
:100D0000642E4608C4004508C3000800283083123A
:100D100003139400831603139101831203134808ED
:100D2000CC004908CD004A08CE004B08CF00023065
:100D30000310CC0DCD0DCE0DCF0DFF3E031D982E13
:100D40004F08F5004E08F4004D08F3004C08F2007F
:100D50000030F9007A30F8001230F7000030F60069
:100D60000A128A11DA230A128A117208FF3E8316C8
:100D700003139300940187150716080083120313C9
:100D8000D10048084A02F8004908031C490A4B02EE
:100D9000F9005108D00048085002F2004909031830
:100DA000013EF3004C084E02F4004D08031C4D0AAE
:100DB0004F02F5000A128A118B270A128A11730852
:100DC000FB007208FA000A128A1171230A128A11B2
:100DD000831203134C087807C8004D0803184D0A06
:100DE0007907C900080083120313C5004508840071
:100DF00000300A128A11CD250A128A110A128A15A8
:100E0000CE270A128A11831380008312031343082A
:100E1000840001300A128A11CD250A128A110A12A1
:100E20008A15CE270A128A118313800083120313B6
:100E30004408840002300A128A11CD250A128A1150
:100E40000A128A15CE270A128A118313800008001D
:100E500083120313C5004508840004300A128A1166
:100E6000CD250A128A110A128A15CE270A128A1172
:100E700083138000831203134308840005300A1291
:100E80008A11CD250A128A110A128A15CE270A1252
:100E90008A118313800083120313440884000630F0
:100EA0000A128A11CD250A128A110A128A15CE2732
:100EB0000A128A118313800008000A128A11EF2493
:100EC0000A128A118316031391150A128A11EF244C
:100ED0000A128A11831203131308F400F50174082F
:100EE000F6007508F7000A128A11EF240A128A1117
:100EF00072037304031D7D2F7E2F822F831603132D
:100F00009112852F83160313911611167708F3009B
:100F10007608F2000800F601F701721C902F912F5D
:100F2000972F7408F6070318F70A7508F7070130BA
:100F30000310F40DF50DFF3E031D982F0130031033
:100F4000F30CF20CFF3E031D9F2F72087304031D68
:100F5000AA2FAB2F8D2F7708F3007608F200080038
:100F600083160317880189018316031386018801FC
:100F7000831203138501860187018801890170307E
:100F8000831603138F040F14003083120313CB0056
:100F90000130CA008630C900A030C8000A128A1188
:100FA00086260A128A110800F7007703031DD92F3D
:100FB000DA2FE42F76087F3EF80078080A128A15A7
:100FC000E6270A128A11F32F02307706031DE92F54
:100FD000EA2FF32F7608BF3EF80078080A128A1528
:100FE000E6270A128A1108000A128A11EF240A124F
:0C0FF0008A11720883120313930008009A
:101EB40071088A00700E8300FE0E7E0E0900640015
:101EC4008001840A0406031900340406622F0A12EE
:101ED4008A11EF240A128A15831603139114080039
:101EE4000A128A11EF240A128A1583160313111495
:101EF40008000A128A11EF240A128A1583160313A2
:101F04001115080000300A128A15E6270A128A15EC
:101F140001300A128A15E6270A128A150800F3000E
:101F2400F2013A3073020318982F992FA12F303001
:101F34007302031C9E2F9F2FA12FF201F20A720C31
:101F44000800F500F401751CA82FA92FAD2F720805
:101F5400F3007308F4070310F20D0310F50C750871
:101F6400031DB52FB62FA52F74080800F4008312A3
:101F74000313061474080A128A110C260A128A150D
:101F84008312031386141A30F300F30BC72F0000D7
:101F94008312031386100800F9000F307905F60048
:101FA4000A30F2007908F70004300310F70CFF3E02
:101FB400031DD72F77080A128A15A3270A128A1538
:101FC4007607F80078080800F5008312031306105A
:101FD40075080A128A110C260A128A158312031331
:101FE40086140B30F4006230F300F30BF72FF40B7C
:0C1FF400F72F0000831203138610080072
:08400000FF3FFF3FFF3FFF3FC0
:04400E00D420FF3F7C
:00000001FF
