:060000000A128A110C280F
:10000800FE00030EF0000A08F1000A128A11132EEE
:100018000A128A110F288313203084003D300A12F7
:100028008A110B260A128A1183010A128A111C28C6
:100038000A128A1162250A128A110A128A112A23BF
:100048000A128A110A128A11D5250A128A11F60192
:10005800F60A01300A128A1186250A128A1114300A
:10006800F5008030F6000A128A11BF230A128A119D
:100078000A128A1102260A128A115130F20000303F
:10008800F3000A128A11EF250A128A110030F200D1
:10009800F3000A128A11E8240A128A1172088312DC
:1000A8000313A8000A128A11F9250A128A110330CB
:1000B80083120313D4000830D3007630D200D20B59
:1000C8006328D30B6328D40B632800000030831205
:1000D8000313C200C300FF30C4000030C500003065
:1000E800C600C7006430C8000030C90028080A12DA
:1000F8008A11B3240A128A11831203134308A70032
:100108004208A6006430F8000030F9002708F30020
:100118002608F2000530F4000030F5000A128A11B2
:100128003D250A128A117308FB007208FA000A12A8
:100138008A11FE210A128A11790883120313A50075
:100148007808A4000A30C2000030C3000A30F80062
:100158000030F9002708F3002608F2000530F40003
:100168000030F5000A128A113D250A128A11730817
:10017800FB007208FA000A128A11FE210A128A117B
:10018800790883120313C5007808C4000A128A117B
:10019800CF220A128A11831203134308A3004208CC
:1001A800A2000A30C2000030C3002708F300260866
:1001B800F2000530F4000030F5000A128A113D25DE
:1001C8000A128A11730883120313C5007208C40047
:1001D8000A128A11CF220A128A11831203134308C2
:1001E800A1004208A000F601F60A02300A128A119C
:1001F80086250A128A110B3083120313C1002508C1
:10020800C3002408C2002308C5002208C40021082E
:10021800C7002008C60029300A128A1122210A12B2
:100228008A112930F5000030F6000A128A11BF231E
:100238000A128A113C280A128A110C288312031305
:10024800D0004230CB00E9292530510603192D2969
:100258002E29382950088400510883138000013062
:10026800C8004808D007E929CC010130C107FF3090
:10027800410784000A128A1120250A128A11D10026
:10028800C800C9014908003A03194B29E929480857
:10029800003A0319F929643A031956290D3A031942
:1002A8005629E9294B08840083130008CE00840AE4
:1002B8000008CF000230C8004808CB07CF1F6529C7
:1002C80066296F290330C8004808CC04CE09CF0935
:1002D800CE0A0319CF0AD101D10A5108C80048072C
:1002E800013E84000A128A1120250A128A11C900C7
:1002F8000A128A1120250A128A11CA004A084F02D6
:10030800031D882949084E0203188B298C298D2939
:1003180097290130C8004808D10705305106031D48
:100328009629972971294C08033903199C299D2975
:10033800A629500884002D30831380000130C8009E
:100348004808D0075108CD00E0290A30BD00003028
:10035800BE004D08C8004807013E84000A128A11F1
:1003680020250A128A11F2000A128A1120250A127F
:100378008A11F3004F08F5004E08F4000A128A119A
:100388007B230A128A11730883120313C0007208B0
:10039800BF000A128A113F240A128A11831203131A
:1003A8003D08303ED1005008840051088313800076
:1003B8000130C8004808D007FF30C8004808CD07FA
:1003C8004D0A031DE829E929A9290130C107FF3091
:1003D800410784000A128A1120250A128A11D100C5
:1003E8005108031DF829F929282950088400831386
:1003F8008001080083120313BF01F91F042A052A8C
:100408000C2AF809F909F80A0319F90ABF01BF0A01
:10041800FB1F0F2A102A192AFA09FB09FA0A0319DD
:10042800FB0A0130BD003D08BF06C001C1017808C4
:1004380079040319202A212A582ABE01BE0A2F2A24
:1004480001300310F80DF90DFF3E031D252A013078
:10045800BD003D08BE07F91F322A332A242A01307D
:100468000310C00DC10DFF3E031D342A79087B021D
:10047800031D402A78087A02031C432A442A4B2A7F
:100488007808FA027908031CFB03FB0240140130C8
:100498000310F90CF80CFF3E031D4C2A0130BE0274
:1004A800031D572A582A332A3F0803195C2A5D2A54
:1004B800622AC009C109C00A0319C10A4108F90022
:1004C8004008F8000800003083120313C000003011
:1004D800BF000030BE000030BD007508740473040E
:1004E80072040319782A792AC62AC101C10A892AFD
:1004F8000130FA000310F20DF30DF40DF50DFA0BAF
:100508007E2A0130FA007A08C107F51F8C2A8D2A45
:100518007C2A0130FA000310BD0DBE0DBF0DC00DC1
:10052800FA0B8F2A75087902031DA42A7408780229
:10053800031DA42A73087702031DA42A72087602F1
:10054800031CA72AA82AB72A7208F6027308031CF4
:10055800730FF7027408031C740FF8027508031C64
:10056800750FF9023D1401300310F50CF40CF30C6F
:10057800F20CFF3E031DB82A0130C102031DC52A33
:10058800C62A8D2A4008F5003F08F4003E08F3000B
:100598003D08F200080083120313C801C51FD52ABD
:1005A800D62ADD2AC409C509C40A0319C50AC8011F
:1005B800C80AC31FE02AE12AE62AC209C309C20AF7
:1005C8000319C30A420843040319EB2AEC2A1B2B1C
:1005D800C701C70AFA2A01300310C20DC30DFF3E36
:1005E800031DF02A0130C6004608C707C31FFD2AAD
:1005F800FE2AEF2A43084502031D042B4208440241
:10060800031C072B082B0E2B4208C4024308031CAB
:10061800C503C50201300310C30CC20CFF3E031D05
:100628000F2B0130C702031D1A2B1B2BFE2A48086B
:1006380003191F2B202B252BC409C509C40A03192C
:10064800C50A4508C3004408C200080000300A1261
:100658008A1101240A128A111A30F700F830F600BC
:10066800F60B342BF70B342B000030300A128A11AA
:10067800A6250A128A110730F7007D30F600F60B1E
:10068800432BF70B432B30300A128A11A6250A1286
:100698008A114230F600F60B4F2B000030300A1258
:1006A8008A11A6250A128A1138300A128A11A6253B
:1006B8000A128A1108300A128A11A6250A128A110A
:1006C80001300A128A11A6250A128A1106300A1266
:1006D8008A11A6250A128A110C300A128A11A62537
:1006E8000A128A112130F600F60B782B0800F70160
:1006F800F801720873040319822B832BBA2BF901B2
:10070800F90A912B01300310F20DF30DFF3E031D82
:10071800872B0130F6007608F907F31F942B952BE9
:10072800862B01300310F70DF80DFF3E031D962BA5
:1007380073087502031DA22B72087402031CA52BF3
:10074800A62BAD2B7208F4027308031CF503F502FF
:10075800771401300310F30CF20CFF3E031DAE2B8F
:100768000130F902031DB92BBA2B952B7808F30039
:100778007708F2000800FA01FB01E42B7A087507F4
:10078800F8007608F7000318F70AFA1FCC2BF703CE
:100798007708F900790883120313FF0078088400AA
:1007A8000A128A1116250A128A110A128A11C025FC
:1007B8000A128A110130FA070318FB0A0030FB07F6
:1007C8007A087507F8007608F7000318F70AFA1F81
:1007D800EE2BF7037708F900790883120313FF005B
:1007E800780884000A128A1116250A128A11003A1A
:1007F800031DFF2B002CC22B0800F200721C052CD5
:10080800062C0A2C8312031308140D2C83120313CD
:100818000810F21C102C112C132C8814142C88107E
:10082800721D172C182C1A2C08151B2C0811F21DD8
:100838001E2C1F2C212C8815222C8811721E252C69
:10084800262C282C0816292C0812F21E2C2C2D2CAC
:100858002F2C8816302C8812721F332C342C362CEF
:100868000817372C0813F21F3A2C3B2C3D2C8817FD
:100878003E2C88130800831203133D083E04031915
:10088800462C472C762CFB01FB0A552C0130031013
:10089800BD0DBE0DFF3E031D4B2C0130FA007A083A
:1008A800FB07BE1F582C592C4A2C3E084002031D3A
:1008B8005F2C3D083F02031C622C632C692C3D0809
:1008C800BF023E08031CC003C00201300310BE0C67
:1008D800BD0CFF3E031D6A2C0130FB02031D752C65
:1008E800762C592C4008BE003F08BD00080028306F
:1008F80083120313940083160313910183120313C5
:100908004208C6004308C7004408C8004508C90093
:1009180002300310C60DC70DC80DC90DFF3E031DDB
:100928008D2C4908F5004808F4004708F3004608EC
:10093800F2000030F9007A30F8001230F700003089
:10094800F6000A128A1167220A128A117208FF3EFB
:100958008316031393009401871507160800831262
:100968000313CB0042084402F8004308031C430A5F
:100978004502F9004B08CA0042084A02F20043093E
:100988000318013EF30046084802F4004708031C18
:10099800470A4902F5000A128A113D250A128A11EE
:1009A8007308FB007208FA000A128A11FE210A1263
:1009B8008A118312031346087807C20047080318F0
:1009C800470A7907C30008000A128A11E2250A12A9
:1009D8008A118316031391150A128A11E2250A1245
:1009E8008A11831203131308F400F5017408F60042
:1009F8007508F7000A128A11E2250A128A11720391
:100A08007304031D082D092D0D2D83160313911250
:100A1800102D83160313911611167708F300760824
:100A2800F2000800FF1B202D83137F18831700088E
:100A3800840A0319FF0A080005308A000408840A9A
:100A480082070034013400340A340034643400343A
:100A5800E834033410342734253464342E342534F0
:100A680064342534643456340034533431343A34DD
:100A78000034F601F701721C422D432D492D7408EC
:100A8800F6070318F70A7508F70701300310F40D85
:100A9800F50DFF3E031D4A2D01300310F30CF20C37
:100AA800FF3E031D512D72087304031D5C2D5D2D3F
:100AB8003F2D7708F3007608F20008008316031725
:100AC80088018901831603138601880183120313A1
:100AD8008501860187018801890170308316031317
:100AE8008F040F14003083120313C5000130C400B3
:100AF8008630C300A030C2000A128A117B240A1271
:100B08008A110800F7007703031D8B2D8C2D962D75
:100B180076087F3EF80078080A128A11A6250A127C
:100B28008A11A52D02307706031D9B2D9C2DA52D1E
:100B38007608BF3EF80078080A128A11A6250A121C
:100B48008A110800F50083120313061075080A12AB
:100B58008A1101240A128A1183120313861406309B
:100B6800F4003030F300F30BB72DF40BB72D000071
:100B78008312031386100800F4008312031306146B
:100B880074080A128A1101240A128A1183120313A3
:100B980086140D30F300F30BCF2D83120313861048
:100BA800080000300A128A11A6250A128A1101309B
:100BB8000A128A11A6250A128A110800831603133D
:100BC8001419E72DE82DE22D11081F39031DED2D0D
:100BD800EE2DE22D08000A128A11E2250A128A1166
:100BE800720883120313930008000A128A11E2257F
:100BF8000A128A1183160313111508000A128A11A2
:100C0800E2250A128A1183160313111408006400DE
:100C18008001840A04060319003404060C2E7108A6
:0C0C28008A00700E8300FE0E7E0E090094
:08400000FF3FFF3FFF3FFF3FC0
:04400E00D420FF3F7C
:00000001FF
