:060000000A128A110C280F
:10000800FE00030EF9000A08FA000A128A11C52B2D
:100018000A128A110F28FB018313473084006B30C2
:100028000A168A11D1260A128A1183010A128A1124
:100038001D280A128A15FD230A128A110A128A1526
:1000480015250A128A110A168A111D270A128A1101
:1000580083120313A401A40A01300A168A11B727D0
:100068000A128A11563083120313A3008030A400A9
:100078000A128A153A240A128A1100300A128A15BD
:10008800F6210A128A1100300A128A15A0220A12D1
:100098008A110C300A128A1567220A128A1108304E
:1000A8000A128A152E220A128A1108300A128A1593
:1000B800D9220A128A1117300A128A1512230A1233
:1000C8008A11831203135008031D6B286C28EE292C
:1000D8000A168A11F4260A128A1151308312031360
:1000E800A2000030A3000A128A1500200A128A1101
:1000F800003083120313A000A1000A128A152321DD
:100108000A128A11831203132008CF000A168A11D3
:10011800FD260A128A11033083120313C300083024
:10012800C2007630C100C10B9728C20B9728C30BB9
:1001380097280000003083120313AF00B000FF308F
:10014800B1000030B2000030B300B4006430B50034
:100158000030B6004F080A128A15BF210A128A1108
:10016800831203133008CE002F08CD006430A60098
:100178000030A7004E08A1004D08A0000530A200DD
:100188000030A3000A168A11D9270A128A1183128D
:1001980003132108A9002008A8000A128A117E2743
:1001A8000A128A11831203132708CC002608CB00F1
:1001B8000A30AF000030B0000A30A6000030A700B7
:1001C8004E08A1004D08A0000530A2000030A30091
:1001D8000A168A11D9270A128A11831203132108D1
:1001E800A9002008A8000A128A117E270A128A117B
:1001F800831203132708B2002608B1000A128A15D1
:100208006E250A128A11831203133008CA002F08B8
:10021800C9000A30AF000030B0004E08A1004D08F8
:10022800A0000530A2000030A3000A168A11D927C1
:100238000A128A11831203132108B2002008B100A0
:100248000A128A156E250A128A11831203133008BE
:10025800C8002F08C700A401A40A02300A168A1190
:10026800B7270A128A114D3083120313AE004C08C7
:10027800B0004B08AF004A08B2004908B10048086E
:10028800B4004708B30051300A128A1529260A1209
:100298008A11513083120313A3000030A4000A12FC
:1002A8008A153A240A128A11693083120313AA00A4
:1002B8006830AB006A300A128A158A210A128A113C
:1002C800083083120313A40001300A168A11B727D5
:1002D8000A128A113E3083120313AE006808C10067
:1002E800C2014108AF004208B0006908C300C40158
:1002F8004308B1004408B2006A08C500C6014508B1
:10030800B3004608B40051300A128A1529260A1289
:100318008A11513083120313A3000030A4000A127B
:100328008A153A240A128A11663083120313AA0026
:100338006530AB0067300A128A1555210A128A11F6
:10034800073083120313A40002300A168A11B72754
:100358000A128A111D3083120313AE006708C10008
:10036800C2014108AF004208B0006608C300C401DA
:100378004308B1004408B2006508C500C601450835
:10038800B3004608B40051300A128A1529260A1209
:100398008A11513083120313A3000030A4000A12FB
:1003A8008A153A240A128A11053083120313A4000D
:1003B80001300A168A11B7270A128A116630831289
:1003C8000313A3008030A4000A128A153A240A12E3
:1003D8008A1165285003031DF229F3293B2A0730A7
:1003E800A40002300A168A11B7270A128A111D3092
:1003F80083120313AE006708C100C2014108AF00B1
:100408004208B0006608C300C4014308B1004408AC
:10041800B2006508C500C6014508B3004608B40027
:1004280051300A128A1529260A128A11513083126C
:100438000313A3000030A4000A128A153A240A12F2
:100448008A11053083120313A40001300A168A1199
:10045800B7270A128A115D3083120313A300803074
:10046800A4000A128A153A240A128A116528023051
:100478005006031D402A412A892A0730A400023069
:100488000A168A11B7270A128A110B30831203132E
:10049800AE006708C100C2014108AF004208B000C1
:1004A8006608C300C4014308B1004408B2006508E7
:1004B800C500C6014508B3004608B40051300A1209
:1004C8008A1529260A128A11513083120313A300B0
:1004D8000030A4000A128A153A240A128A1105303B
:1004E80083120313A40001300A168A11B7270A12CF
:1004F8008A11633083120313A3008030A4000A1208
:100508008A153A240A128A11652803305006031DF9
:100518008E2A8F2AD72A0730A40002300A168A1199
:10052800B7270A128A110B3083120313AE0067082B
:10053800C100C2014108AF004208B0006608C3000C
:10054800C4014308B1004408B2006508C500C601EB
:100558004508B3004608B40051300A128A15292606
:100568000A128A11513083120313A3000030A40029
:100578000A128A153A240A128A11053083120313C3
:10058800A40001300A168A11B7270A128A115A30B4
:1005980083120313A3008030A4000A128A153A2498
:1005A8000A128A11652804305006031DDC2ADD2A48
:1005B800252B0830A40001300A168A11B7270A1221
:1005C8008A112E3083120313AE006808C100C201DD
:1005D8004108AF004208B0006908C300C4014308DD
:1005E800B1004408B2006A08C500C6014508B30056
:1005F8004608B40051300A128A1529260A128A11AF
:10060800513083120313A3000030A4000A128A1584
:100618003A240A128A11053083120313A400013008
:100628000A168A11B7270A128A1160308312031337
:10063800A3008030A4000A128A153A240A128A11EB
:10064800652805305006031D2A2B2B2B732B0830E9
:10065800A40001300A168A11B7270A128A112E300F
:1006680083120313AE006808C100C2014108AF003D
:100678004208B0006908C300C4014308B100440837
:10068800B2006A08C500C6014508B3004608B400B0
:1006980051300A128A1529260A128A1151308312FA
:1006A8000313A3000030A4000A128A153A240A1280
:1006B8008A11053083120313A40001300A168A1127
:1006C800B7270A128A116C3083120313A3008030F3
:1006D800A4000A128A153A240A128A1165280630DB
:1006E8005006031D782B792BC12B0830A40001304C
:1006F8000A168A11B7270A128A112E308312031399
:10070800AE006808C100C2014108AF004208B0004D
:100718006908C300C4014308B1004408B2006A086C
:10072800C500C6014508B3004608B40051300A1296
:100738008A1529260A128A11513083120313A3003D
:100748000030A4000A128A153A240A128A110530C8
:1007580083120313A40001300A168A11B7270A125C
:100768008A11693083120313A3008030A4000A128F
:100778008A153A240A128A11652865280A128A11EC
:100788000C280B1CC82BC92B7F2E0B1083120313AC
:10079800861ACF2BD02BDB2B0630F8003030F70031
:1007A800F70BD42BF80BD42B0000FB01FB0A8312A8
:1007B8000313861EE02BE12B242C7B03031DE52B62
:1007C800E62B242C5008031DEA2BEB2BEF2BD00132
:1007D800D00AFB01242C5003031DF32BF42BF72B19
:1007E8000230D000ED2B02305006031DFC2BFD2BF0
:1007F800002C0330D000ED2B03305006031D052CD0
:10080800062C092C0430D000ED2B04305006031DB3
:100818000E2C0F2C122C0530D000ED2B0530500675
:10082800031D172C182C1B2C0630D000ED2B06307E
:100838005006031D202C212C242CD001FB01242C34
:10084800861B272C282C332C0230FB000330F800A1
:100858009730F700F70B2E2CF80B2E2C332C831225
:100868000313861F382C392CB82D02307B06031D44
:100878003E2C3F2CB82D5003031D432C442CDA2C5E
:1008880066030319482C492C6D2C0330660603199E
:100898004E2C4F2C6D2C053066060319542C552C04
:1008A8006D2C0730660603195A2C5B2C6D2C08300A
:1008B80066060319602C612C6D2C0A306606031934
:1008C800662C672C6D2C0C306606031D6C2C6D2C69
:1008D800872C1F306706031D722C732C7C2C1F304D
:1008E800E70067080A128A1538200A128A11D82CDC
:1008F8000130F7007708E70767080A128A153820D9
:100908000A128A11D82C0430660603198C2C8D2CF7
:100918009F2C063066060319922C932C9F2C0930C5
:1009280066060319982C992C9F2C0B306606031D1C
:100938009E2C9F2CB92C1E306706031DA42CA52CB9
:10094800AE2C1E30E70067080A128A1538200A12F2
:100958008A11D82C0130F7007708E70767080A12D0
:100968008A1538200A128A11D82C02306606031D0F
:10097800BE2CBF2CD82C1C306706031DC42CC52CDC
:10098800CE2C1C30E70067080A128A1538200A1294
:100998008A11D82C0130F7007708E70767080A1290
:1009A8008A1538200A128A11FB01B82D0230500628
:1009B800031DDF2CE02C382D0C306606031DE52CBA
:1009C800E62CEF2C0C30E60066080A128A15C520C2
:1009D8000A128A11D82C0130F7007708E607660852
:1009E8000A128A15C5200A128A11043083120313C9
:1009F80066060319002D012D132D0630660603190E
:100A0800062D072D132D0930660603190C2D0D2D03
:100A1800132D0B306606031D122D132D1F2D67088D
:100A28000319172D182D1F2D1E300A128A1538206C
:100A38000A128A11D82C02306606031D242D252D92
:100A4800312D67080319292D2A2D312D1C300A1242
:100A58008A1538200A128A11D82C67080A128A15B2
:100A680038200A128A11D82C03305006031D3D2D58
:100A78003E2D582D63306506031D432D442D4D2D05
:100A88006330E50065080A128A15F4200A128A11F3
:100A9800D82C0130F7007708E50765080A128A158F
:100AA800F4200A128A11D82C04305006031D5D2D3B
:100AB8005E2D782D17306806031D632D642D6D2D6E
:100AC8001730E80068080A128A1567200A128A1186
:100AD800D82C0130F7007708E80768080A128A1549
:100AE80067200A128A11D82C05305006031D7D2D67
:100AF8007E2D982D3B306906031D832D842D8D2D69
:100B08003B30E90069080A128A1596200A128A11F0
:100B1800D82C0130F7007708E90769080A128A1506
:100B280096200A128A11D82C06305006031D9D2DD6
:100B38009E2DB82D3B306A06031DA32DA42DAD2D87
:100B48003B30EA006A080A128A150A200A128A113A
:100B5800D82C0130F7007708EA076A080A128A15C4
:100B68000A200A128A11D82C83120313061BBD2DE2
:100B7800BE2DC92D0330FB000330F8009730F70075
:100B8800F70BC42DF80BC42DC92D83120313061FB0
:100B9800CE2DCF2D7F2E03307B06031DD42DD52DD2
:100BA8007F2E5003031DD92DDA2DF22D6703031D67
:100BB800DE2DDF2DE82DE701E70A67080A128A15FE
:100BC80038200A128A11F02D0130E70267080A124C
:100BD8008A1538200A128A11FB017F2E023050062E
:100BE800031DF72DF82D0F2E6603031DFC2DFD2D7B
:100BF800062EE601E60A66080A128A15C5200A12B8
:100C08008A11F02D0130E60266080A128A15C520FD
:100C18000A128A11F02D03305006031D142E152ECA
:100C28002B2E6508031D192E1A2E222EE5016508A4
:100C38000A128A15F4200A128A11F02D0130E502F1
:100C480065080A128A15F4200A128A11F02D043058
:100C58005006031D302E312E472E6808031D352EF1
:100C6800362E3E2EE80168080A128A1567200A12F5
:100C78008A11F02D0130E80268080A128A156720E7
:100C88000A128A11F02D05305006031D4C2E4D2EE8
:100C9800632E6908031D512E522E5A2EE901690848
:100CA8000A128A1596200A128A11F02D0130E902DB
:100CB80069080A128A1596200A128A11F02D063040
:100CC8005006031D682E692E7F2E6A08031D6D2E9F
:100CD8006E2E762EEA016A080A128A150A200A126E
:100CE8008A11F02D0130EA026A080A128A150A20D0
:100CF8000A128A11F02D7A088A00790E8300FE0EF6
:100D08007E0E0900003083120313AC000030AB00E4
:100D18000030AA000030A90023082204210420047E
:100D28000319972E982EE52EAD01AD0AA82E013095
:100D3800A8000310A00DA10DA20DA30DA80B9D2EB8
:100D48000130A8002808AD07A31FAB2EAC2E9B2EA0
:100D58000130A8000310A90DAA0DAB0DAC0DA80B0E
:100D6800AE2E23082702031DC32E22082602031DC8
:100D7800C32E21082502031DC32E20082402031CAC
:100D8800C62EC72ED62E2008A4022108031C210F28
:100D9800A5022208031C220FA6022308031C230F06
:100DA800A702291401300310A30CA20CA10CA00C5B
:100DB800FF3E031DD72E0130AD02031DE42EE52EA4
:100DC800AC2E2C08A3002B08A2002A08A100290891
:100DD800A0000800831603131419F32EF42EEE2E28
:0E0DE80011081F39031DF92EFA2EEE2E0800F9
:100E0000FF1B0A2F83137F1883170008840A031916
:100E1000FF0A080007308A000408840A82070034A9
:100E2000013400340A34003464340034E8340334C8
:100E30001034273425343034323475342F3425348B
:100E40003034323475342F34323430342534303445
:100E5000323475342034003425343034323475342F
:100E60002F3425343034323475342F343234303426
:100E7000253430343234753400342534303432344F
:100E800075343A3425343034323475343A342534B8
:100E90003034323475342034003425343034323434
:100EA00075343A3425343034323475343A34253498
:100EB0003034323475340034253464342E342534DF
:100EC00064342534643456340034533431343A3481
:100ED0000034413420340034443420340034483465
:100EE000203400344D34203400344E342034003467
:100EF0005334203400346D3420340034831203130F
:100F0000AC01A71F842F852F8C2FA609A709A60A3D
:100F10000319A70AAC01AC0AA91F8F2F902F992F94
:100F2000A809A909A80A0319A90A0130AA002A08D0
:100F3000AC06AD01AE01260827040319A02FA12F8E
:100F4000D82FAB01AB0AAF2F01300310A60DA70DB0
:100F5000FF3E031DA52F0130AA002A08AB07A71FDB
:100F6000B22FB32FA42F01300310AD0DAE0DFF3EF5
:100F7000031DB42F27082902031DC02F26082802AD
:100F8000031CC32FC42FCB2F2608A8022708031C3D
:100F9000A903A9022D1401300310A70CA60CFF3ED3
:100FA000031DCC2F0130AB02031DD72FD82FB32F39
:100FB0002C080319DC2FDD2FE22FAD09AE09AD0A95
:100FC0000319AE0A2E08A7002D08A60008008312F8
:100FD0000313A200061422080A128A1585230A1296
:100FE0008A11831203138614193083120313A1008C
:0E0FF000A10BF82FFB2F8312031386100800AD
:101000000A128A11EE260A128A1583120313220885
:1010100093000800F6000A168A11D9260A128A15CA
:10102000D030F2000030F3000A168A1106270A12A7
:101030008A150030F200F3000A168A1106270A12F8
:101040008A1576080A168A112A270A128A15F400C8
:10105000F5017408F2007508F3000A168A110627D4
:101060000A128A150A168A11E2260A128A1508003F
:10107000F6000A168A11D9260A128A15D030F20013
:101080000030F3000A168A1106270A128A15043066
:10109000F2000030F3000A168A1106270A128A1598
:1010A00076080A168A112A270A128A15F400F50111
:1010B0007408F2007508F3000A168A1106270A124E
:1010C0008A150A168A11E2260A128A150800F60005
:1010D0000A168A11D9260A128A15D030F200003079
:1010E000F3000A168A1106270A128A150230F20046
:1010F0000030F3000A168A1106270A128A157608AC
:101100000A168A112A270A128A15F400F5017408B2
:10111000F2007508F3000A168A1106270A128A15CA
:101120000A168A11E2260A128A150800F6000A1623
:101130008A11D9260A128A15D030F2000030F30045
:101140000A168A1106270A128A150130F2000030A9
:10115000F3000A168A1106270A128A1576080A165B
:101160008A112A270A128A15F400F5017408F20080
:101170007508F3000A168A1106270A128A150A163C
:101180008A11E2260A128A150800F6000A168A1148
:10119000D9260A128A15D030F2000030F3000A1660
:1011A0008A1106270A128A150530F2000030F30072
:1011B0000A168A1106270A128A1576080A168A1153
:1011C0002A270A128A15F400F5017408F20075083E
:1011D000F3000A168A1106270A128A150A168A11BE
:1011E000E2260A128A150800F6000A168A11D92684
:1011F0000A128A15D030F2000030F3000A168A1164
:1012000006270A128A150630F2000030F3000A168B
:101210008A1106270A128A1576080A168A112A27C1
:101220000A128A15F400F5017408F2007508F3003B
:101230000A168A1106270A128A150A168A11E22648
:101240000A128A1508000A128A11EE260A128A1555
:101250008316031391150A128A11EE260A128A15B3
:10126000831203131308A200A3012208A400230879
:10127000A5000A128A11EE260A128A158312031398
:1012800020032104031D452946294A2983160313F7
:1012900091124D298316031391161116831203130D
:1012A0002508A1002408A000080083120313AC0045
:1012B0002C08840004300A128A15C6240A128A15E2
:1012C0000A168A119B270A128A158313800083123B
:1012D00003132A08840005300A128A15C6240A124C
:1012E0008A150A168A119B270A128A158313800011
:1012F000831203132B08840006300A128A15C624B1
:101300000A128A150A168A119B270A128A15831354
:101310008000080083120313AC002C088400003006
:101320000A128A15C6240A128A150A168A119B27E0
:101330000A128A1583138000831203132A0884007B
:1013400001300A128A15C6240A128A150A168A1151
:101350009B270A128A1583138000831203132B081C
:10136000840002300A128A15C6240A128A150A1647
:101370008A119B270A128A158313800008008312A2
:101380000313B8002F083102A6003008031C300AEE
:101390003202A7003808B7002F083702A000300932
:1013A0000318013EA10033083502A2003408031CD3
:1013B000340A3602A3000A168A11D9270A128A159E
:1013C000831203132108A9002008A8000A128A1119
:1013D0007E270A128A158312031333082607AF00EB
:1013E00034080318340A2707B000080083120313D7
:1013F000A6000A168A11F4260A128A15D030831222
:101400000313A2000030A3000A128A1500200A125A
:101410008A15003083120313A200A3000A128A1552
:1014200000200A128A158312031326080A168A114D
:1014300052270A128A1583120313A400A501240857
:10144000A2002508A3000A128A1500200A128A1594
:101450000A168A11FD260A128A1508008312031340
:10146000A6000A168A11F4260A128A15D0308312B1
:101470000313A2000030A3000A128A1500200A12EA
:101480008A15043083120313A2000030A3000A124D
:101490008A1500200A128A158312031326080A16D9
:1014A0008A1152270A128A1583120313A400A50178
:1014B0002408A2002508A3000A128A1500200A1297
:1014C0008A150A168A11FD260A128A150800831247
:1014D0000313A6000A168A11F4260A128A15D030C0
:1014E00083120313A2000030A3000A128A15002001
:1014F0000A128A15023083120313A2000030A300DF
:101500000A128A1500200A128A158312031326086C
:101510000A168A1152270A128A1583120313A4008D
:10152000A5012408A2002508A3000A128A1500209C
:101530000A128A150A168A11FD260A128A1508004F
:1015400083120313A6000A168A11F4260A128A15BA
:10155000D03083120313A2000030A3000A128A15B0
:1015600000200A128A15013083120313A2000030F2
:10157000A3000A128A1500200A128A158312031387
:1015800026080A168A1152270A128A158312031393
:10159000A400A5012408A2002508A3000A128A15A8
:1015A00000200A128A150A168A11FD260A128A15C7
:1015B000080083120313A6000A168A11F4260A12E1
:1015C0008A15D03083120313A2000030A3000A1240
:1015D0008A1500200A128A15053083120313A2000F
:1015E0000030A3000A128A1500200A128A158312FD
:1015F000031326080A168A1152270A128A15831223
:101600000313A400A5012408A2002508A3000A12C0
:101610008A1500200A128A150A168A11FD260A1256
:101620008A15080083120313A6000A168A11F426ED
:101630000A128A15D03083120313A2000030A300CF
:101640000A128A1500200A128A1506308312031323
:10165000A2000030A3000A128A1500200A128A157F
:101660008312031326080A168A1152270A128A15B2
:1016700083120313A400A5012408A2002508A300D7
:101680000A128A1500200A128A150A168A11FD26E6
:101690000A128A1508002830831203139400831657
:1016A00003139101831203132E08B2002F08B30015
:1016B0003008B4003108B50002300310B20DB30D8C
:1016C000B40DB50DFF3E031D5D2B3508A300340896
:1016D000A2003308A1003208A0000030A7007A3031
:1016E000A6001230A5000030A4000A128A11862636
:1016F0000A128A15831203132008FF3E8316031370
:101700009300940187150716080083120313A000A5
:10171000201C8B2B8C2B8E2B08148F2B0810A01CBD
:10172000922B932B952B8814962B8810201D992B88
:101730009A2B9C2B08159D2B0811A01DA02BA12BCB
:10174000A32B8815A42B8811201EA72BA82BAA2B0E
:101750000816AB2B0812A01EAE2BAF2BB12B881690
:10176000B22B8812201FB52BB62BB82B0817B92B1C
:101770000813A01FBC2BBD2BBF2B8817C02B8813B1
:10178000080083120313280829040319C82BC92B46
:10179000F82BAD01AD0AD72B01300310A80DA90D10
:1017A000FF3E031DCD2B0130AC002C08AD07A91F57
:1017B000DA2BDB2BCC2B29082B02031DE12B28086D
:1017C0002A02031CE42BE52BEB2B2808AA0229088C
:1017D000031CAB03AB0201300310A90CA80CFF3EA5
:1017E000031DEC2B0130AD02031DF72BF82BDB2B77
:1017F0002B08A9002A08A8000800831603178801EF
:10180000890183160313061086108616061786179D
:1018100088018312031385018601870188018901EC
:101820008B170B178B1507300A128A15C9250A1258
:101830008A1506300A128A15C9250A128A1505303A
:101840000A128A15C9250A128A15703083160313E5
:101850008F040F14003083120313B1000130B00065
:101860008630AF00A030AE000A128A154B230A1250
:101870008A15080083120313A801A901632C280804
:101880002307A6002408A5000318A50AA81F492CB1
:10189000A503831203132508A7002708FF002608C5
:1018A00084000A128A1100270A128A150A128A1164
:1018B000E7270A128A15013083120313A8070318B9
:1018C000A90A0030A90728082307A6002408A500B4
:1018D0000318A50AA81F6D2CA5038312031325085E
:1018E000A7002708FF00260884000A128A11002793
:1018F0000A128A15003A031D7E2C7F2C3F2C08000B
:1019000083120313A501A601200821040319892CC1
:101910008A2CC12CA701A70A982C01300310A00D16
:10192000A10DFF3E031D8E2C0130A4002408A70743
:10193000A11F9B2C9C2C8D2C01300310A50DA60DF6
:10194000FF3E031D9D2C21082302031DA92C200806
:101950002202031CAC2CAD2CB42C2008A2022108BE
:10196000031CA303A302251401300310A10CA00C37
:10197000FF3E031DB52C0130A702031DC02CC12C56
:101980009C2C2608A1002508A00008008312031340
:10199000A8000A168A11F4260A128A15D03083127A
:1019A0000313A2000030A3000A128A1500200A12B5
:1019B0008A15831203132808A600A7012608A2008F
:1019C0002708A3000A128A1500200A128A150A168F
:1019D0008A11EB260A128A15D13083120313A20052
:1019E0000030A3000A128A1500200A128A1500305E
:1019F00083120313A000A1000A128A1523210A12E0
:101A00008A15831203132008A9000A168A11FD26DD
:101A10000A128A15053083120313A600A60B0E2D99
:101A2000112D831203132908080000300A128A15A9
:101A300085230A128A15343083120313A500F1306E
:101A4000A400A40B212DA50B212D30300A168A11DC
:101A50007F270A128A150D3083120313A500FB306D
:101A6000A400A40B312DA50B312D30300A168A119C
:101A70007F270A128A15843083120313A400A40B53
:101A80003F2D000030300A168A117F270A128A156E
:101A900038300A168A117F270A128A1508300A166A
:101AA0008A117F270A128A1501300A168A117F27A8
:101AB0000A128A1506300A168A117F270A128A1519
:101AC0000C300A168A117F270A128A1541308312B8
:101AD0000313A400A40B6A2D6D2D080083120313B9
:101AE000B501B21F742D752D7C2DB109B209B10A53
:101AF0000319B20AB501B50AB01F7F2D802D852DBF
:101B0000AF09B009AF0A0319B00A2F08300403194E
:101B10008A2D8B2DBA2DB401B40A992D01300310F2
:101B2000AF0DB00DFF3E031D8F2D0130B300330804
:101B3000B407B01F9C2D9D2D8E2D30083202031D41
:101B4000A32D2F083102031CA62DA72DAD2D2F0884
:101B5000B1023008031CB203B20201300310B00C12
:101B6000AF0CFF3E031DAE2D0130B402031DB92D95
:101B7000BA2D9D2D35080319BE2DBF2DC42DB109D9
:101B8000B209B10A0319B20A3208B0003108AF0035
:101B9000080083120313A0008B158316031381130F
:101BA0000730831203132006031DD72DD82DDC2DFB
:101BB0008316031395179617063083122006031D0C
:101BC000E22DE32DE72D83160313151716170530A5
:101BD00083122006031DED2DEE2DF22D8316031327
:101BE00095169616043083122006031DF82DF92D44
:101BF000FD2D8316031315161616033083122006C7
:101C0000031D032E042E082E831603139515961517
:101C1000023083122006031D0E2E0F2E132E831664
:101C200003131515161583122003031D182E192EE4
:101C30001D2E831603139514961483122008031D7A
:101C4000222E232E272E83160313151416140B1081
:101C5000080083120313C0002F30B900EB2F25308A
:101C60003F060319342E352E3F2E400884003F08CE
:101C7000831380000130B5003508C007EB2FBD018C
:101C8000BE01BC01482E3C150130B5003508AE0739
:101C90002E0884000A128A110A270A128A15B50032
:101CA000B6013608003A0319562E5B2E3508303A35
:101CB0000319432E5B2E2E0884000A128A110A276C
:101CC0000A128A150A168A113E270A128A15031C5F
:101CD0006A2E6B2EAE2E83120313BD01BE010A3095
:101CE00083120313A0000030A1003E08A3003D08AA
:101CF000A2000A168A11D9270A128A158312031321
:101D00002108BE002008BD002E0884000A128A1196
:101D10000A270A128A15D03EB500FF30031800309A
:101D2000B6003508BD070318BE0A3608BE070130E5
:101D3000B5003508AE072E0884000A128A110A275A
:101D40000A128A150A168A113E270A128A150318E2
:101D5000AA2EAB2E6F2EAE2E3C17D02E0130831242
:101D60000313AE07FF302E0784000A128A110A27D8
:101D70000A128A15BF00B500B6013608003A0319E9
:101D8000C22EEB2F3508003A0319FB2F643A0319D2
:101D9000D02E0D3A0319D02E1C3A0319AC2EEB2F7E
:101DA0003C1BD32ED42EEE2E39088400831300085A
:101DB000BA00840A0008BB000230B5003508B90734
:101DC000BB1FE32EE42EFA2E0330B5003508BC0409
:101DD000BA09BB09BA0A0319BB0AFA2E39088400EA
:101DE00083130008BA00840A0008BB000230B50063
:101DF0003508B907BF01BF0A3F08B5003507013EE6
:101E000084000A128A110A270A128A15B6000A12D9
:101E10008A110A270A128A15B70037083B02031DE8
:101E2000132F36083A020318162F172F182F222FB8
:101E30000130B5003508BF0705303F06031D212FCF
:101E4000222FFC2E3D083E040319272F282F342F64
:101E50003C08033903192D2F2E2F342FFF30BD07D7
:101E60000318BE0AFF30BE073E08803A803C031DBF
:101E70003B2F3D083F0203183E2F3F2F4B2F83126D
:101E800003133F08B500B6013508BD023608031C30
:101E9000BE03BE024F2F83120313BD01BE013C1DC2
:101EA000522F532F7E2F3C0803390319582F592FD7
:101EB000622F400884002D30831380000130B5006C
:101EC0003508C0073D083E040319672F682FA82F67
:101ED000400884003030831380000130B50035089D
:101EE000C007FF30BD070318BE0AFF30BE073D081C
:101EF0003E04031D7C2F7D2F682FA82F3D083E0434
:101F00000319832F842F992F4008840020308313D6
:101F100080000130B5003508C007FF30BD07031849
:101F2000BE0AFF30BE073D083E04031D982F992FBF
:101F3000842F3C08033903199E2F9F2FA82F400898
:101F400084002D30831380000130B5003508C007B0
:101F50003F08B800E22F0A30A8000030A900380876
:101F6000B5003507013E84000A128A110A270A12B9
:101F70008A15A0000A128A110A270A128A15A100DE
:101F80003B08A3003A08A2000A128A1580240A120C
:101F90008A15831203132108AB002008AA000A1235
:101FA0008A15C1230A128A15831203132808303EAA
:101FB000BF00400884003F08831380000130B50053
:101FC0003508C007FF30B5003508B807380A031DCB
:101FD000EA2FEB2FAB2F0130AE07FF302E07840026
:101FE0000A128A110A270A128A15BF003F08031D28
:101FF000FA2FFB2F2F2E4008840083138001080046
:102DA20064008001840A0406031900340406D22E4A
:102DB2000A168A1110270A168A1183160313111490
:102DC20008000A168A1110270A168A11831603139D
:102DD200111508000A128A11EE260A168A118316A4
:102DE2000313911408000A128A11EE260A168A1198
:102DF20083160313111408000A128A11EE260A160A
:102E02008A1183160313111508000A168A11102756
:102E12000A168A117208831203139300080083169C
:102E220003131419152F162F102F11081F39031D04
:102E32001B2F1C2F102F080000300A168A117F2723
:102E42000A168A1101300A168A117F270A168A1178
:102E52000800F000F1010A307002031C312F322FFA
:102E6200392F7008F63EF0007108103EF1002C2F49
:102E720070087107F1007108080083120313A100A2
:102E8200A0013A3021020318472F482F502F30302B
:102E92002102031C4D2F4E2F502FA001A00A200CFF
:102EA200080083120313A000A1010A302002031CB0
:102EB2005B2F5C2F632F2008F63EA0002108103EF6
:102EC200A100562F20082107A10021080800831223
:102ED2000313A300A201231C6F2F702F742F20084D
:102EE200A1002108A2070310A00D0310A30C2308C0
:102EF200031D7C2F7D2F6C2F2208080083120313E1
:102F0200A300061023080A128A1585230A168A11BD
:102F12008312031386140B3083120313A200613051
:102F2200A100A10B922FA20B922F972F83120313B2
:102F32008610080083120313A7000F302705A40090
:102F42000A30A0002708A50004300310A50CFF3E9C
:102F5200031DA62F25080A168A1168270A168A1148
:102F6200831203132407A600260808008312031302
:102F7200A5002503031DBE2FBF2FC92F24087F3EA6
:102F8200A60026080A168A117F270A168A11D82F48
:102F920002302506031DCE2FCF2FD82F2408BF3E87
:102FA200A60026080A168A117F270A168A11080027
:102FB20083120313A401A501201CE02FE12FE72FA8
:102FC2002208A4070318A50A2308A5070130031045
:102FD200A20DA30DFF3E031DE82F01300310A10C2B
:102FE200A00CFF3E031DEF2F20082104031DFA2F22
:0E2FF200FB2FDD2F2508A1002408A0000800F9
:08400000FF3FFF3FFF3FFF3FC0
:04400E00D420FF3F7C
:00000001FF
